:10016100E4FBFA90041DC3EB9FEA9E501AE4FCFDE8
:10017100C3ED9582EC958350070DBD00010C80F015
:070181000BBB00010A80DF47
:010188002254
:10011200750F06751072E4F50DF50EF50CF50BF57D
:100122000A53B1FB43B20443B10853B2F753B1DFF0
:1001320043B220D2B5538E7F5389FC5389FB758C11
:1001420070F58AD2A9D28CD28AD2AAD2BAD2AFD22E
:0F015200B27FFA7E00120161C2B212016180F029
:0300130002019552
:09019500750D00750E00050C3219
:03000B00020016DA
:10001600C0E0C083C082C0D075D000C002C003C09B
:0700260004C005C006C0077D
:10002D00050EE50E7002050DE50AC39402404BD393
:10003D00E509940AE508648094804002C2B3D3E5D3
:10004D00099414E508648094804008D2B3750800C3
:10005D00750900D3E50E9490E50D94014014750AD1
:10006D0000750B0043B10853B2F7D2AA750D007598
:10007D000E000509E50970020508D3E50E9510E59A
:10008D000D950F4028E50BB40113C2B57F647E00BA
:10009D00120161D2B5750A01750B008010750D0046
:1000AD00750E0043B10853B2F7D2AAD2BAD3E50EFA
:1000BD009432E50D94004038E50C603494034023F0
:1000CD00E50CD39407501C750B01750D00750E00D2
:1000DD00E50AB4010E750A02750B00C2AA53B1F7F9
:1000ED0043B208E50CC3940A4003750B00750C0070
:1000FD00D007D006D005D004D003D002D0D0D08206
:05010D00D083D0E032B8
:0300000002018971
:0C018900787FE4F6D8FD758110020112A9
:00000001FF
