:10016100E4FBFA90041DC3EB9FEA9E501AE4FCFDE8
:10017100C3ED9582EC958350070DBD00010C80F015
:070181000BBB00010A80DF47
:010188002254
:10011200750F02751058E4F50DF50EF50CF50BF59B
:100122000A53B1FB43B20443B10853B2F753B1DFF0
:1001320043B220D2B5538E7F5389FC5389FB758C11
:1001420070F58AD2A9D28CD28AD2AAD2BAD2AFD22E
:0F015200B27FFA7E00120161C2B212016180F029
:0300130002019552
:09019500750D00750E00050C3219
:03000B00020016DA
:10001600C0E0C083C082C0D075D000C002C003C09B
:0700260004C005C006C0077D
:10002D00050EE50E7002050DE50A6402704BD3E571
:10003D0009940AE508648094804002C2B3D3E509AF
:10004D009414E508648094804008D2B37508007557
:10005D000900D3E50E94C8E50D94004014750A000F
:10006D00750B0143B10853B2F7D2AA750D00750E89
:10007D00000509E50970020508D3E50E9510E50D9B
:10008D00950F401CE50BB40111C2B57F647E0012C3
:10009D000161D2B5750A01750B00750D00750E0065
:1000AD00D3E50E9432E50D94004045E50C60419486
:1000BD00034030E50CD394075029750B01750D00E5
:1000CD00750E00E50AB40110750A02750B00C2AA7F
:1000DD0053B1F743B208800B750A0043B10853B210
:1000ED00F7D2AAE50CC3940A4003750B00750C00FA
:1000FD00D007D006D005D004D003D002D0D0D08206
:05010D00D083D0E032B8
:0300000002018971
:0C018900787FE4F6D8FD758110020112A9
:00000001FF
