:0C01D300041C0000000004180000003CA8
:08015D007F2C7E017D007C0077
:080165008F138E128D118C1016
:10016D00E4F516F517F582F58375140475151DAFB5
:10017D0082AE83E4FCFDAB13AA12A911A810D31211
:10018D0001C2401DE4F516F517C3E5179515E516E3
:10019D009514500A0517E51770EF051680EBA3802F
:0101AD00CE83
:0101AE00222E
:0C01E000C2B37FFA7E00120161D2B3228C
:10002C0053B1FB43B20453B1F743B20843B120536D
:05003C00B2DFD2B32287
:10004100538E7F5389FC5389FB758C70E4F58AD2FA
:04005100A9D28C2282
:10000E0012002C120041758F20D2AF7F887E131202
:0E001E000161D2B212015DC2B212015D80F426
:03005B000201AFF0
:1001AF00751F00751E00751D00751C00538FDF43F2
:0301BF008F20325C
:03000B000200EA06
:1000EA00C0E0C0F0C083C082C0D075D000C000C0DC
:1000FA0001C002C003C004C005C006C007E47FF403
:10010A007E01FDFCAB1FAA1EA91DA81CD31201C2A9
:10011A0040111201E0751F00751E00751D00751C47
:10012A00008015E51F2401F51FE4351EF51EE43590
:10013A001DF51DE4351CF51CD007D006D005D004EA
:10014A00D003D002D001D000D0D0D082D083D0F05A
:03015A00D0E032C0
:0300000002005E9D
:0C005E00787FE4F6D8FD75811F0200A534
:1001C200EB9FF5F0EA9E42F0E99D42F0E89C45F093
:0101D200220A
:10006A0002000EE493A3F8E493A34003F68001F29E
:10007A0008DFF48029E493A3F85407240CC8C33397
:10008A00C4540F4420C8834004F456800146F6DF66
:10009A00E4800B01020408102040809001D3E47E22
:1000AA00019360BCA3FF543F30E509541FFEE4935B
:1000BA00A360010ECF54C025E060A840B8E493A322
:1000CA00FAE493A3F8E493A3C8C582C8CAC583CA4D
:1000DA00F0A3C8C582C8CAC583CADFE9DEE780BE05
:0101DF00001F
:00000001FF
