:1001CB00020E00B4020C0000020A0000020800003C
:10019000E4FBFA90041DC3EB9FEA9E501AE4FCFDB9
:1001A000C3ED9582EC958350070DBD00010C80F0E6
:0701B0000BBB00010A80DF18
:0101B7002225
:1001510053B1FB43B20443B10853B20853B1DF4377
:10016100B220D2B5538E7F5389FC5389FB758C70B5
:10017100E4F58AD2A9D28CD28AD2AAD2BAD2AFD28B
:0F018100B27F2C7E01120190C2B212019080F069
:030013000201B82F
:1001B800C0E0750C00750D00050BE50B7002050A13
:0301C800D0E03252
:03000B00020016DA
:10001600C0E0C083C082C0D075D000C002C003C09B
:1000260004C005C006C007050DE50D7002050CD31A
:10003600950FE50C950E4018E50964014508700A10
:10004600C2B57F64FE120190D2B5750C00750D0025
:10005600E50D6405450C7052C3E50B9403E50A648F
:100066008094804026D3E50B9407E50A648094804B
:100076005019E509640145087005F50E750F1E75E2
:100086000800750901750C00750D00C3E50B940A8F
:10009600E50A64809480400C750800750900750EA9
:1000A60000750FB4750A00750B00D007D006D00591
:0F00B600D004D003D002D0D0D082D083D0E0329B
:030000000200C536
:0C00C500787FE4F6D8FD75810F02010C75
:1000D100020151E493A3F8E493A34003F68001F2F3
:1000E10008DFF48029E493A3F85407240CC8C33330
:1000F100C4540F4420C8834004F456800146F6DFFF
:10010100E4800B01020408102040809001CBE47EC2
:10011100019360BCA3FF543F30E509541FFEE493F3
:10012100A360010ECF54C025E060A840B8E493A3BA
:10013100FAE493A3F8E493A3C8C582C8CAC583CAE5
:10014100F0A3C8C582C8CAC583CADFE9DEE780BE9D
:0101DB000023
:00000001FF
