:1000D800E4FBFA90041DC3EB9FEA9E501AE4FCFD72
:1000E800C3ED9582EC958350070DBD00010C80F09F
:0700F8000BBB00010A80DFD1
:0100FF0022DE
:10008800750D01750E90E4F50BF50CF50AF509757B
:10009800080153B1FB43B20443B10853B20853B14A
:1000A800DF43B220D2B5538E7F5389FC5389FB7549
:1000B8008C70F58AD2A9D28CD28AD2AAD2BAD2AFFF
:1000C800D2B27FFA7E001200D8C2B21200D880F0F5
:0300130002010CDB
:09010C00750B00750C00050A32A8
:03000B00020016DA
:10001600C0E0C083C082C0D075D000C002C003C09B
:1000260004C005C006C007050CE50C7002050BD31D
:10003600950EE50B950D401CE509B40111C2B57F7F
:10004600647E001200D8D2B5750801750901750BDA
:1000560000750C00D3E50C9464E50B9400400EE5A6
:100066000A600A940A4003750900750A00D007D091
:1000760006D005D004D003D002D0D0D082D083D011
:02008600E03266
:03000000020100FA
:0C010000787FE4F6D8FD75810E020088BF
:00000001FF
